{
  "_format": "hh-sol-artifact-1",
  "contractName": "fourthSector",
  "sourceName": "contracts/fourthSector.sol",
  "abi": [
    {
      "inputs": [
        {
          "internalType": "address",
          "name": "_admin",
          "type": "address"
        }
      ],
      "stateMutability": "nonpayable",
      "type": "constructor"
    },
    {
      "anonymous": false,
      "inputs": [
        {
          "indexed": false,
          "internalType": "address",
          "name": "account",
          "type": "address"
        },
        {
          "indexed": false,
          "internalType": "bool",
          "name": "isWorker",
          "type": "bool"
        }
      ],
      "name": "AccountUpdated",
      "type": "event"
    },
    {
      "anonymous": false,
      "inputs": [
        {
          "indexed": false,
          "internalType": "address",
          "name": "account",
          "type": "address"
        },
        {
          "indexed": false,
          "internalType": "uint256",
          "name": "points",
          "type": "uint256"
        },
        {
          "indexed": false,
          "internalType": "string",
          "name": "ipfsUri",
          "type": "string"
        }
      ],
      "name": "ClaimSubmitted",
      "type": "event"
    },
    {
      "anonymous": false,
      "inputs": [
        {
          "indexed": false,
          "internalType": "address",
          "name": "account",
          "type": "address"
        },
        {
          "indexed": false,
          "internalType": "uint256",
          "name": "claimIndex",
          "type": "uint256"
        },
        {
          "indexed": false,
          "internalType": "bool",
          "name": "verified",
          "type": "bool"
        }
      ],
      "name": "ClaimVerified",
      "type": "event"
    },
    {
      "anonymous": false,
      "inputs": [
        {
          "indexed": false,
          "internalType": "address",
          "name": "account",
          "type": "address"
        },
        {
          "indexed": false,
          "internalType": "uint256",
          "name": "claimIndex",
          "type": "uint256"
        },
        {
          "indexed": false,
          "internalType": "uint256",
          "name": "newPoints",
          "type": "uint256"
        }
      ],
      "name": "PointsModified",
      "type": "event"
    },
    {
      "anonymous": false,
      "inputs": [
        {
          "indexed": false,
          "internalType": "address",
          "name": "sponsor",
          "type": "address"
        },
        {
          "indexed": false,
          "internalType": "uint256",
          "name": "amount",
          "type": "uint256"
        },
        {
          "indexed": false,
          "internalType": "address",
          "name": "tokenAddress",
          "type": "address"
        }
      ],
      "name": "SponsorshipReceived",
      "type": "event"
    },
    {
      "anonymous": false,
      "inputs": [
        {
          "indexed": false,
          "internalType": "address",
          "name": "sponsor",
          "type": "address"
        },
        {
          "indexed": false,
          "internalType": "uint256",
          "name": "points",
          "type": "uint256"
        },
        {
          "indexed": false,
          "internalType": "string",
          "name": "ipfsUri",
          "type": "string"
        }
      ],
      "name": "SponsorshipSubmitted",
      "type": "event"
    },
    {
      "anonymous": false,
      "inputs": [
        {
          "indexed": false,
          "internalType": "address",
          "name": "supporter",
          "type": "address"
        },
        {
          "indexed": false,
          "internalType": "uint256",
          "name": "points",
          "type": "uint256"
        },
        {
          "indexed": false,
          "internalType": "string",
          "name": "ipfsUri",
          "type": "string"
        }
      ],
      "name": "SupportClaimSubmitted",
      "type": "event"
    },
    {
      "anonymous": false,
      "inputs": [
        {
          "indexed": false,
          "internalType": "address",
          "name": "supporter",
          "type": "address"
        },
        {
          "indexed": false,
          "internalType": "address",
          "name": "nftAddress",
          "type": "address"
        },
        {
          "indexed": false,
          "internalType": "uint256",
          "name": "tokenId",
          "type": "uint256"
        }
      ],
      "name": "SupportReceived",
      "type": "event"
    },
    {
      "anonymous": false,
      "inputs": [
        {
          "indexed": false,
          "internalType": "address",
          "name": "nftAddress",
          "type": "address"
        }
      ],
      "name": "ValidNFTContractAdded",
      "type": "event"
    },
    {
      "anonymous": false,
      "inputs": [
        {
          "indexed": false,
          "internalType": "address",
          "name": "nftAddress",
          "type": "address"
        }
      ],
      "name": "ValidNFTContractRemoved",
      "type": "event"
    },
    {
      "inputs": [
        {
          "internalType": "uint256",
          "name": "",
          "type": "uint256"
        }
      ],
      "name": "accountList",
      "outputs": [
        {
          "internalType": "address",
          "name": "",
          "type": "address"
        }
      ],
      "stateMutability": "view",
      "type": "function"
    },
    {
      "inputs": [
        {
          "internalType": "address",
          "name": "",
          "type": "address"
        }
      ],
      "name": "accounts",
      "outputs": [
        {
          "internalType": "uint256",
          "name": "totalAttributionPoints",
          "type": "uint256"
        },
        {
          "internalType": "bool",
          "name": "isWorker",
          "type": "bool"
        },
        {
          "internalType": "bool",
          "name": "isSponsor",
          "type": "bool"
        },
        {
          "internalType": "bool",
          "name": "isSupporter",
          "type": "bool"
        }
      ],
      "stateMutability": "view",
      "type": "function"
    },
    {
      "inputs": [
        {
          "internalType": "address",
          "name": "_nftAddress",
          "type": "address"
        }
      ],
      "name": "addValidNFTContract",
      "outputs": [],
      "stateMutability": "nonpayable",
      "type": "function"
    },
    {
      "inputs": [],
      "name": "admin",
      "outputs": [
        {
          "internalType": "address",
          "name": "",
          "type": "address"
        }
      ],
      "stateMutability": "view",
      "type": "function"
    },
    {
      "inputs": [
        {
          "internalType": "address",
          "name": "_account",
          "type": "address"
        }
      ],
      "name": "calculateShare",
      "outputs": [
        {
          "internalType": "uint256",
          "name": "",
          "type": "uint256"
        }
      ],
      "stateMutability": "view",
      "type": "function"
    },
    {
      "inputs": [],
      "name": "getAccountsAndShares",
      "outputs": [
        {
          "internalType": "address[]",
          "name": "",
          "type": "address[]"
        },
        {
          "internalType": "uint256[]",
          "name": "",
          "type": "uint256[]"
        }
      ],
      "stateMutability": "view",
      "type": "function"
    },
    {
      "inputs": [
        {
          "internalType": "address",
          "name": "_nftAddress",
          "type": "address"
        }
      ],
      "name": "removeValidNFTContract",
      "outputs": [],
      "stateMutability": "nonpayable",
      "type": "function"
    },
    {
      "inputs": [
        {
          "internalType": "uint256",
          "name": "_points",
          "type": "uint256"
        },
        {
          "internalType": "string",
          "name": "_ipfsUri",
          "type": "string"
        },
        {
          "internalType": "address",
          "name": "_tokenAddress",
          "type": "address"
        },
        {
          "internalType": "uint256",
          "name": "_tokenAmount",
          "type": "uint256"
        }
      ],
      "name": "sponsor",
      "outputs": [],
      "stateMutability": "payable",
      "type": "function"
    },
    {
      "inputs": [
        {
          "internalType": "uint256",
          "name": "_points",
          "type": "uint256"
        },
        {
          "internalType": "string",
          "name": "_ipfsUri",
          "type": "string"
        }
      ],
      "name": "submitClaim",
      "outputs": [],
      "stateMutability": "nonpayable",
      "type": "function"
    },
    {
      "inputs": [
        {
          "internalType": "uint256",
          "name": "_points",
          "type": "uint256"
        },
        {
          "internalType": "string",
          "name": "_ipfsUri",
          "type": "string"
        },
        {
          "internalType": "address",
          "name": "_nftAddress",
          "type": "address"
        },
        {
          "internalType": "uint256",
          "name": "_tokenId",
          "type": "uint256"
        }
      ],
      "name": "support",
      "outputs": [],
      "stateMutability": "nonpayable",
      "type": "function"
    },
    {
      "inputs": [
        {
          "internalType": "address",
          "name": "_account",
          "type": "address"
        },
        {
          "internalType": "bool",
          "name": "_isWorker",
          "type": "bool"
        }
      ],
      "name": "updateAccount",
      "outputs": [],
      "stateMutability": "nonpayable",
      "type": "function"
    },
    {
      "inputs": [
        {
          "internalType": "address",
          "name": "",
          "type": "address"
        }
      ],
      "name": "validNFTContracts",
      "outputs": [
        {
          "internalType": "bool",
          "name": "",
          "type": "bool"
        }
      ],
      "stateMutability": "view",
      "type": "function"
    },
    {
      "inputs": [
        {
          "internalType": "address",
          "name": "_account",
          "type": "address"
        },
        {
          "internalType": "uint256",
          "name": "_claimIndex",
          "type": "uint256"
        },
        {
          "internalType": "uint256",
          "name": "_newPoints",
          "type": "uint256"
        },
        {
          "internalType": "bool",
          "name": "_verified",
          "type": "bool"
        }
      ],
      "name": "verifyOrModifyClaim",
      "outputs": [],
      "stateMutability": "nonpayable",
      "type": "function"
    },
    {
      "inputs": [
        {
          "internalType": "address",
          "name": "_account",
          "type": "address"
        },
        {
          "internalType": "uint256",
          "name": "_claimIndex",
          "type": "uint256"
        },
        {
          "internalType": "bool",
          "name": "_verified",
          "type": "bool"
        }
      ],
      "name": "verifyWorkerClaim",
      "outputs": [],
      "stateMutability": "nonpayable",
      "type": "function"
    }
  ],
  "bytecode": "0x608060405234801561001057600080fd5b5060405161186f38038061186f83398101604081905261002f91610054565b600080546001600160a01b0319166001600160a01b0392909216919091179055610084565b60006020828403121561006657600080fd5b81516001600160a01b038116811461007d57600080fd5b9392505050565b6117dc806100936000396000f3fe6080604052600436106100dd5760003560e01c806379d2ad211161007f578063d3045cd311610059578063d3045cd3146102b6578063d9e5a857146102d6578063f8106f0e146102f6578063f851a4401461031957600080fd5b806379d2ad2114610228578063c0e9302b14610268578063d17c61dc1461028857600080fd5b806345b46525116100bb57806345b46525146101375780634ea98d16146101575780635e5c06e2146101945780636962f0be1461020857600080fd5b80630edbacff146100e257806310d7d5be146100f7578063442367cc14610117575b600080fd5b6100f56100f03660046112d8565b610339565b005b34801561010357600080fd5b506100f5610112366004611345565b6105c8565b34801561012357600080fd5b506100f5610132366004611385565b610762565b34801561014357600080fd5b506100f56101523660046113bc565b610801565b34801561016357600080fd5b50610177610172366004611403565b610946565b6040516001600160a01b0390911681526020015b60405180910390f35b3480156101a057600080fd5b506101e06101af36600461141c565b600260205260009081526040902080546001820154600390920154909160ff90811691808216916101009091041684565b604080519485529215156020850152901515918301919091521515606082015260800161018b565b34801561021457600080fd5b506100f5610223366004611437565b610970565b34801561023457600080fd5b5061025861024336600461141c565b60016020526000908152604090205460ff1681565b604051901515815260200161018b565b34801561027457600080fd5b506100f561028336600461141c565b610b7a565b34801561029457600080fd5b506102a86102a336600461141c565b610bfc565b60405190815260200161018b565b3480156102c257600080fd5b506100f56102d136600461141c565b610cae565b3480156102e257600080fd5b506100f56102f13660046112d8565b610d2d565b34801561030257600080fd5b5061030b610f48565b60405161018b92919061147f565b34801561032557600080fd5b50600054610177906001600160a01b031681565b61034233611154565b33600090815260026020526040902060038101805460ff191660011790556001600160a01b03831661040757600034116103c35760405162461bcd60e51b815260206004820152601e60248201527f4d7573742073656e642045544820776974682073706f6e736f7273686970000060448201526064015b60405180910390fd5b6040805133815234602082015260008183015290517f6cd0c436fcacc183719df3b65fc61b3b06d86906da37082e929cfcf1b402ab769181900360600190a161050e565b6040516323b872dd60e01b81523360048201523060248201526044810183905283906001600160a01b038216906323b872dd906064016020604051808303816000875af115801561045c573d6000803e3d6000fd5b505050506040513d601f19601f820116820180604052508101906104809190611503565b6104c45760405162461bcd60e51b8152602060048201526015602482015274151bdad95b881d1c985b9cd9995c8819985a5b1959605a1b60448201526064016103ba565b60408051338152602081018590526001600160a01b0386168183015290517f6cd0c436fcacc183719df3b65fc61b3b06d86906da37082e929cfcf1b402ab769181900360600190a1505b6040805160a081018252868152602080820187815260009383018490526001600160a01b0387166060840152608083018490526002850180546001818101835591865292909420835160049093020191825551919290919082019061057390826115a9565b50604082015160028201805460608501516001600160a01b031661010002610100600160a81b0319931515939093166001600160a81b0319909116179190911790556080909101516003909101555050505050565b6001600160a01b03831660009081526002602052604090206001015460ff166106225760405162461bcd60e51b815260206004820152600c60248201526b2737ba1030903bb7b935b2b960a11b60448201526064016103ba565b6001600160a01b0383166000908152600260208190526040909120015482106106835760405162461bcd60e51b8152602060048201526013602482015272092dcecc2d8d2c840c6d8c2d2da40d2dcc8caf606b1b60448201526064016103ba565b6001600160a01b03831660009081526002602081905260408220018054849081106106b0576106b0611669565b90600052602060002090600402019050818160020160006101000a81548160ff02191690831515021790555081156107125780546001600160a01b0385166000908152600260205260408120805490919061070c908490611695565b90915550505b604080516001600160a01b0386168152602081018590528315158183015290517f61c864759bf6e9b8509179a4235c1d5690486511c8740a853010b70033129e129181900360600190a150505050565b6000546001600160a01b0316331461078c5760405162461bcd60e51b81526004016103ba906116ae565b61079582611154565b6001600160a01b03821660008181526002602090815260409182902060018101805460ff1916861515908117909155835194855291840191909152917fd6fc912559a9c223ab71f4d034c41186083646a7d960d39d0caf615cc69d0cc3910160405180910390a1505050565b3360009081526002602052604090206001015460ff166108525760405162461bcd60e51b815260206004820152600c60248201526b2737ba1030903bb7b935b2b960a11b60448201526064016103ba565b336000908152600260208181526040808420815160a081018352878152808401878152928101869052606081018690526080810186905293018054600181810183559186529290942083516004909302019182555191929091908201906108b990826115a9565b5060408281015160028301805460608601516001600160a01b031661010002610100600160a81b0319931515939093166001600160a81b031990911617919091179055608090920151600390910155517fed2a4bd7266fcc54ee2f031542ea6e3830c4e013441bfb0c8969898456c7c6df9061093a903390859085906116ef565b60405180910390a15050565b6003818154811061095657600080fd5b6000918252602090912001546001600160a01b0316905081565b6000546001600160a01b0316331461099a5760405162461bcd60e51b81526004016103ba906116ae565b6001600160a01b03841660009081526002602081905260409091209081015484106109fd5760405162461bcd60e51b8152602060048201526013602482015272092dcecc2d8d2c840c6d8c2d2da40d2dcc8caf606b1b60448201526064016103ba565b6000816002018581548110610a1457610a14611669565b600091825260209091206003840154600490920201915060ff1680610a4257506003820154610100900460ff165b610aa35760405162461bcd60e51b815260206004820152602c60248201527f4163636f756e74206973206e65697468657220612073706f6e736f72206e6f7260448201526b10309039bab83837b93a32b960a11b60648201526084016103ba565b83815560028101805460ff19168415801591909117909155610ad95783826000016000828254610ad39190611695565b90915550505b604080516001600160a01b0388168152602081018790529081018590527f3dc32eda792fd4427b385ead936ab00ae2f795baef527ff10e71d87d18741ef69060600160405180910390a1604080516001600160a01b038816815260208101879052841515918101919091527f61c864759bf6e9b8509179a4235c1d5690486511c8740a853010b70033129e12906060015b60405180910390a1505050505050565b6000546001600160a01b03163314610ba45760405162461bcd60e51b81526004016103ba906116ae565b6001600160a01b038116600081815260016020908152604091829020805460ff1916905590519182527f53a359806baf360212fed22f7628b5a6886cfa6dae568eac211f7cdc32ebb61c91015b60405180910390a150565b600080805b600354811015610c65576002600060038381548110610c2257610c22611669565b60009182526020808320909101546001600160a01b03168352820192909252604001902054610c519083611695565b915080610c5d81611754565b915050610c01565b5080600003610c775750600092915050565b6001600160a01b0383166000908152600260205260409020548190610c9d90606461176d565b610ca79190611784565b9392505050565b6000546001600160a01b03163314610cd85760405162461bcd60e51b81526004016103ba906116ae565b6001600160a01b038116600081815260016020818152604092839020805460ff191690921790915590519182527f7fc75e46caab40b9e4e7605c77764ff33c2379665a1edb9c070247e78de868a29101610bf1565b6001600160a01b03821660009081526001602052604090205460ff16610d955760405162461bcd60e51b815260206004820181905260248201527f4e4654206973206e6f742066726f6d20612076616c696420636f6e747261637460448201526064016103ba565b6040516323b872dd60e01b81523360048201523060248201526044810182905282906001600160a01b038216906323b872dd90606401600060405180830381600087803b158015610de557600080fd5b505af1158015610df9573d6000803e3d6000fd5b50505050610e0633611154565b33600090815260026020818152604080842060038101805461ff001916610100179055815160a0810183528a81528084018a81529281018690526001600160a01b03891660608201526080810188905293810180546001818101835591875293909520845160049094020192835590519093820190610e8590826115a9565b506040828101516002830180546060808701516001600160a81b0319909216931515610100600160a81b031916939093176101006001600160a01b0392831602179091556080909401516003909301929092558051338152928716602084015282018590527ff3dc9c4748cad72c43af54da5bc21cfcd80b8d03ba2b8da110af3b65d005cb1f910160405180910390a17f09c8da0adc9caea9a9df7eb48da14d72cc942a820696bd932f824c20acf6e56e338787604051610b6a939291906116ef565b6060806000805b600354811015610fb3576002600060038381548110610f7057610f70611669565b60009182526020808320909101546001600160a01b03168352820192909252604001902054610f9f9083611695565b915080610fab81611754565b915050610f4f565b5060035460009067ffffffffffffffff811115610fd257610fd2611219565b604051908082528060200260200182016040528015610ffb578160200160208202803683370190505b5060035490915060009067ffffffffffffffff81111561101d5761101d611219565b604051908082528060200260200182016040528015611046578160200160208202803683370190505b50905060005b600354811015611149576003818154811061106957611069611669565b9060005260206000200160009054906101000a90046001600160a01b031683828151811061109957611099611669565b60200260200101906001600160a01b031690816001600160a01b031681525050600084116110c857600061111a565b8360026000600384815481106110e0576110e0611669565b60009182526020808320909101546001600160a01b0316835282019290925260400190205461111090606461176d565b61111a9190611784565b82828151811061112c5761112c611669565b60209081029190910101528061114181611754565b91505061104c565b509094909350915050565b61115d816111b0565b6111ad57600380546001810182556000919091527fc2575a0e9e593c00f959f8c92f12db2869c3395a3b0502d05e2516446f71f85b0180546001600160a01b0319166001600160a01b0383161790555b50565b6000805b60035481101561121057826001600160a01b0316600382815481106111db576111db611669565b6000918252602090912001546001600160a01b0316036111fe5750600192915050565b8061120881611754565b9150506111b4565b50600092915050565b634e487b7160e01b600052604160045260246000fd5b600082601f83011261124057600080fd5b813567ffffffffffffffff8082111561125b5761125b611219565b604051601f8301601f19908116603f0116810190828211818310171561128357611283611219565b8160405283815286602085880101111561129c57600080fd5b836020870160208301376000602085830101528094505050505092915050565b80356001600160a01b03811681146112d357600080fd5b919050565b600080600080608085870312156112ee57600080fd5b84359350602085013567ffffffffffffffff81111561130c57600080fd5b6113188782880161122f565b935050611327604086016112bc565b9396929550929360600135925050565b80151581146111ad57600080fd5b60008060006060848603121561135a57600080fd5b611363846112bc565b925060208401359150604084013561137a81611337565b809150509250925092565b6000806040838503121561139857600080fd5b6113a1836112bc565b915060208301356113b181611337565b809150509250929050565b600080604083850312156113cf57600080fd5b82359150602083013567ffffffffffffffff8111156113ed57600080fd5b6113f98582860161122f565b9150509250929050565b60006020828403121561141557600080fd5b5035919050565b60006020828403121561142e57600080fd5b610ca7826112bc565b6000806000806080858703121561144d57600080fd5b611456856112bc565b93506020850135925060408501359150606085013561147481611337565b939692955090935050565b604080825283519082018190526000906020906060840190828701845b828110156114c15781516001600160a01b03168452928401929084019060010161149c565b5050508381038285015284518082528583019183019060005b818110156114f6578351835292840192918401916001016114da565b5090979650505050505050565b60006020828403121561151557600080fd5b8151610ca781611337565b600181811c9082168061153457607f821691505b60208210810361155457634e487b7160e01b600052602260045260246000fd5b50919050565b601f8211156115a457600081815260208120601f850160051c810160208610156115815750805b601f850160051c820191505b818110156115a05782815560010161158d565b5050505b505050565b815167ffffffffffffffff8111156115c3576115c3611219565b6115d7816115d18454611520565b8461155a565b602080601f83116001811461160c57600084156115f45750858301515b600019600386901b1c1916600185901b1785556115a0565b600085815260208120601f198616915b8281101561163b5788860151825594840194600190910190840161161c565b50858210156116595787850151600019600388901b60f8161c191681555b5050505050600190811b01905550565b634e487b7160e01b600052603260045260246000fd5b634e487b7160e01b600052601160045260246000fd5b808201808211156116a8576116a861167f565b92915050565b60208082526021908201527f4f6e6c792061646d696e2063616e2063616c6c20746869732066756e6374696f6040820152603760f91b606082015260800190565b60018060a01b038416815260006020848184015260606040840152835180606085015260005b8181101561173157858101830151858201608001528201611715565b506000608082860101526080601f19601f83011685010192505050949350505050565b6000600182016117665761176661167f565b5060010190565b80820281158282048414176116a8576116a861167f565b6000826117a157634e487b7160e01b600052601260045260246000fd5b50049056fea264697066735822122049411a9c7c431f5170f7690257af9ac648113781a0cdb59fa4f23eb2d5fdb0c164736f6c63430008120033",
  "linkReferences": {},
  "deployedLinkReferences": {}
}